:040000006F40603CB1
:100004000000000000000000EC100000EE100000F2
:1000140000000000C44300000000000000000000D5
:10002400C4430000C44300000000000000000000BE
:10003400C443000000000000C443000000000000AE
:10004400C4430000C4430000C44300000000000097
:10005400C4430000C4430000C4430000C443000080
:10006400C4430000C4430000C4430000C443000070
:10007400C4430000C4430000C4430000C443000060
:10008400C4430000C4430000C4430000C443000050
:10009400C4430000C4430000C4430000C443000040
:1000A400C4430000C4430000C4430000C443000030
:1000B400C4430000D6130000C4430000C44300003E
:1000C400C4430000C4430000C4430000C443000010
:1000D400C4430000C4430000F0100000000000000E
:1000E400000000000000000000000000000000000C
:0C00F40000000000000000000000000000
:10010000397101436EC619A0397141536AC866CA74
:1001100062CC5ECE19A0397101535AD056D252D456
:100120004ED64AD826DA22DC06DE330161408282CE
:1001300041114AC026C222C406C68282B24D410184
:10014000024D924C224CB24B4101024B924A224A40
:10015000B2494101024992442244B24041018280A5
:100160003D432A876373C3029377F700BDEFADE584
:10017000937606FF3D8ABA960CC34CC30CC74CC796
:100180004107E36BD7FE11E28280B306C3408A06C3
:100190009702000096966780A6002307B700A30683
:1001A000B7002306B700A305B7002305B700A304D3
:1001B000B7002304B700A303B7002303B700A302CB
:1001C000B7002302B700A301B7002301B700A300C3
:1001D000B7002300B700828093F5F50F9396850052
:1001E000D58D93960501D58D61B79396270097021B
:1001F000000096968682E78086FA9680C1171D8F4A
:100200003E96E374C3F8A5B7EFF2FFF09605AA9502
:10021000AA89130600021385418DEF10907E138486
:10022000418D1C201830A207BA97C207C183239DB5
:10023000F186C207C1879384A18763D007021306A2
:100240000002CE851385418DA38E0186EF10707B51
:100250001C201830A207BA979EA083D20400C16E5A
:10026000FD1E138EC187938741871383C186938FA9
:10027000E187138F0187938881861388E186138530
:100280004186938501881386218893866187138729
:1002900081876388D20B834E24002300DE01034E46
:1002A00034002380C7015C20034E5400A207F2975C
:1002B0002310F3007C2003437400A2079A97239035
:1002C000FF001C2403439400A2079A970343A40051
:1002D000A2079A970343B400A2079A972320FF002E
:1002E0005C240343D400A2079A970343E400A207C7
:1002F0009A970343F400A2079A9723A0F8001C28BA
:1003000083481401A207C6972310F8003C2803482D
:100310003401A207C2971EA15C284838A207AA97F9
:100320009EA17C286C38A207AE971EA21C2C103C04
:10033000A207B2979EA23C2C343CA207B6971EA3FC
:1003400029B523800700930740062310F300930785
:1003500040022390FF00FD571EA11305000A8AA149
:10036000930500052390040023000E0023200F00B6
:1003700023A008002310F8000EA29EA2C9B793067E
:10038000F00F63E8A6001387C10E2A971C233E8551
:100390008280130705F0420741838147E3E9E6FEC7
:1003A0009567938747EEAA9783C707F0CDB7814734
:1003B0001947B386F5009022B306F500850790A291
:1003C000E399E7FE8280EFF2BFD61C2189462A849A
:1003D0006382D70E63E4F6008DC3ADBB0D47638C1B
:1003E000E72C2147E39BE7FE0831EF20B04E239531
:1003F000A188935785005CA095A81C3113070003C2
:100400006382E7021307D004E399E7FCA285138512
:10041000C184713F854619469385C1840D45EF001F
:10042000B06765BF3C21054795836383E70495C7A3
:1004300011476381E7061547E391E7FA3C313D47F1
:10044000E366F7FC139717009387C10CBA975821FE
:100450005431220736979AA355BF28315C202205D4
:100460003E9542054181213F2384A18848B079BF50
:100470003C31BD46014763E8F600139717009387A8
:10048000C10CBA979A232393E188935787005CA005
:1004900058B0ADBF3C315821A207BA97C207C183FB
:1004A0001307F00FE364F7F654311387C10EBA97C0
:1004B00094A3A9BF1C311547E361F7F215678A07BA
:1004C000130787E9BA979C4382873C213831A207FA
:1004D000BA972396F1825C215831A207BA972398E4
:1004E000F182E5BD3C213831A207BA972397F1820A
:1004F0005C215831A207BA972399F182F9BD3C21BA
:100500003831A207BA972395F1825C215831A207AE
:10051000BA972394F182D1B53C213147E36FF7EAD2
:1005200015678A07130707EBBA979C438287383110
:100530005C2122073E9783D6218303D6E18283D5AF
:10054000018303D5C1822207EF207069C1B538311C
:100550005C2122073E9703D8818283D7A18283D66C
:10056000218303D6E18283D5018303D5C18222078B
:10057000EF30802961BD5C2158313031A207BA9734
:1005800003D7818283D6A18283D5018303D5C1821B
:10059000C207C183EF30407395BD03D7818283D6F4
:1005A000A18283D501831306350003D5C182EF30C4
:1005B0008075A9BD38315C2122073E9703D881821E
:1005C00083D7A18283D6218303D6E18283D5018399
:1005D00003D5C18242074183EF30C04205BD5C2193
:1005E00058313031A207BA9703D7818283D6A182CE
:1005F00083D5018303D5C182C207C183EF30A06ECA
:1006000031B503D7818283D6A18283D501831306B6
:10061000350003D5C182EF30D000CDBB83D6218316
:1006200003D6E18283D5018303D5C182EF207076A2
:10063000F1BB3C314C21A207BE951385818DEF2083
:10064000107C61BBEF30C00349BBB70510001385B8
:10065000418D13060008938505F0EF10903A2C3079
:1006600041667D161385418DA38EB182EF2050091E
:1006700071BB38315C2122073E9783D6218303D694
:10068000E18283D5018303D5C18242074183EF20F4
:100690002074ADBBEF20503E89B393052500138530
:1006A000818DEF20905115BB543150212C312821E0
:1006B000EF3080001DB318310546630EC70215C325
:1006C0006308D704E31BF7D03C212C315031A2073B
:1006D000AE974C21A207BE951385418DEF10F074A3
:1006E00035B33C212831A207AA974820A2073E959E
:1006F000EF10503BA5BB3C212C315031A207AE97E7
:100700004C21A207BE951385418DEF10D061FDB934
:100710004C215C312821A205BE953C302205C20542
:100720003E954205C1814181EF20A010C5B123AAA9
:10073000018423AC018403D7C18623AEE1842383E3
:100740000184A3830184238001862392018882800F
:10075000EFF29F9B83C70186638F0726054763934C
:10076000E718B7E700E0096723A2E718371400206D
:1007700023A2E7181307C46034273C37A207D58F9C
:100780008607BA97F827FC372384E184BA861304D6
:10079000C460938981841389718493846184630D17
:1007A000071C8347090098206364F700938707F9C3
:1007B000998F93F7F70F2389F18463EED70C23AA5F
:1007C000018423AC018403D6C186371A0020370B7D
:1007D000024023AEC1843697930B0009130ACA2046
:1007E000938AC19D814513054B0963CFEB0EEF3012
:1007F000106783C7090013054B0985455CC1382480
:100800003C34A207D98F9A073E9A232445019C20A5
:10081000BE9A23265501EF3090649C2003C709003F
:10082000BA9793F7F70FB3F777039CA038243C34BB
:10083000A207D98F8607A297F82723870700F837E2
:10084000A387070038243C343424A207D98F8507B6
:10085000C207C18313F7F70F38A4A18338343CB41F
:1008600038243C34A207D98F3D476378F7003C24F5
:10087000230504003C34A305040058245C345424AC
:10088000A207D98FFD17C207C18313F7F70F58A42A
:10089000A18358345CB4373702408357A742C2075C
:1008A000C183CD9BC207C1832315F7428357A7425B
:1008B000194A1384C19DC207C1832315F742B7E7C4
:1008C00000E0096723A2E710914A9389418D130B39
:1008D0000009034509009C2033574503B3D747035C
:1008E000631FF70A6FF0DF85EF30705798203705E8
:1008F0000020130B4B09B387EB402322FB00342469
:100900003C345697A207D58F9A07D2972324FB0031
:100910002326EB00EF30D05685455A85EF30305412
:1009200037050020EF30F05465DD370B024013052A
:100930004B098145EF30B052982083C609009307D8
:1009400000093387E740B387E64013054B095CC1D4
:1009500034243C348545A207D58F9A07BA97D2979D
:100960001CC523265501EF30904F9C2003C709007A
:10097000BA979387070755BD03A741858567938776
:100980007738E3FAE7F0653303D7418683D62184CD
:1009900003D6E18381450145EF208043EDBD2295DB
:1009A0001C21639857031C31382185078A07CE978D
:1009B00098A3383198B35821B8A35831B8B38347B6
:1009C0000900990793F7F70FB3F767032300F900BE
:1009D00009B7D53AEDB7938751849823938401865C
:1009E00013844185630A07329387E1879A239389A9
:1009F00081851389C185138AC186630507128356D1
:100A00000A00832509001040AE96636CD6007D175E
:100A10009AA383D7A1872320C900B1C70547638460
:100A2000E70A83A709001840938747066368F7160B
:100A3000938581811385C18423A0E900EFF03F975E
:100A4000854619469385C1840D45EF00F004254580
:100A5000EF20406803D72186938741836375E50EB5
:100A6000054798A325AA03D5618783D58187C167E8
:100A70003378B500FD1703D6018883D6218803A7F4
:100A80000187938B0188138B2188938A0187631DCB
:100A9000F80083D5218483D7E1830945958D918F13
:100AA000B3C5A50233C5A702EF20701383D70B008F
:100AB00003570B00B387E702860703A70A00BA971C
:100AC00023A0FA00B9BF03D5618783D58187C168A8
:100AD0003373B500FD1803D6018883D6218803A798
:100AE000018783D7E18603D84186938B0188138BD6
:100AF0002188938A0187631D130183D5218403D53F
:100B0000E1838948958D118DB3C5150333451503D0
:100B1000EF20904F83D70B0003570B00B387E702FA
:100B20008D8761BF83C5D18737051000130505E0A8
:100B3000EFF08FED83570A002320040023A0090063
:100B40002320F900F9BD942305472380070063970C
:100B5000E60403C7D1879306F00F9387D187050773
:100B60001377F70F6307D71A98A38C233705100064
:100B7000130505E0EFF04FE903D7418683D62184C2
:100B800003D6E18381450145EF20802483570A0085
:100B90002320040023A009002320F900B7E700E088
:100BA000096723A2E7183714002023A2E7181307C8
:100BB000C46034273C371304C460A207D58F86076E
:100BC000BA97F827FC37BA872384F184638C07101F
:100BD00019476394E70A38243C34A207D98F139746
:100BE0006700B71700209386C720B307D7009C2360
:100BF000C9E73C24383422075D8F1A07369718332B
:100C00009307D004631BF7063C24383422075D8F1A
:100C10001A0736973823930730056310F7063C24EC
:100C2000383422075D8F1A07369730339307E00474
:100C30006315F6043C24383422075D8F1A07369773
:100C4000582393073004631AF70238243C34A20770
:100C5000D98F9A07B697DC336391C70293850181D8
:100C60001385C184EFF0AFF4854785461946938517
:100C7000C1840D459CA0EF00206238243C34A207BB
:100C8000D98F8607A297F82723870700F837A3870D
:100C9000070038243C343424A207D98F8507C207C3
:100CA000C18313F7F70F38A4A18338343CB4382438
:100CB0003C34A207D98F3D476378F7003C242305D5
:100CC00004003C34A305040058245C345424A207D7
:100CD000D98FFD17C207C18313F7F70F58A4A1835B
:100CE00058345CB4373702408357A742C207C183E8
:100CF000CD9BC207C1832315F7428357A742C20782
:100D0000C1832315F742B7E700E0096723A2E71084
:100D1000D1BE2380070091BD14401307803EE37FBE
:100D2000D7E63DBBEFF2CFC085451145EF30D03956
:100D3000854537050200EF30103B85450945EF300A
:100D4000903A85450545EF30503601456FF08FC02C
:100D5000EFF20FBE3704004041111305044002C2F8
:100D600002C423160100EF30B044B707002083A768
:100D7000070237470F0013070724B3D7E7024C00D9
:100D80001305044023130100FD177C829307703E76
:100D90003EC4EF309047130504408545EF30F065C1
:100DA0000546130504408545EF30705FB7E700E066
:100DB0003707400023A2E710854513050440EF30B4
:100DC000305B41016FF00FB9EFF2EFB4371401401F
:100DD0007971AA8A2E8913050480914532C602D002
:100DE00002D202D402D602CA02CC02CEEF30B02028
:100DF0008544114AC1494C081305048052CA26CCC7
:100E00004ECEEF307008374700408357C7404C083C
:100E100013050480C207C183CD9BC207C18323167B
:100E2000F740A1473ECA930780043ECEEF30D0057D
:100E3000E1474C08130504803ECE52CA26CCEF3061
:100E4000B004A1674C08130504803ECA26CC4ECEE0
:100E5000EF30900356D02312010232468D676306AD
:100E6000990089476319F90489672313F1028547BB
:100E70006316F604930700602314F10285672312BA
:100E8000F10237440040B1470C101305044023150C
:100E9000F10223160102EF30505913050440930567
:100EA0000004EF301064854513050440EF30F06016
:100EB00045616FF08FA92313010255BF8947631560
:100EC000F600930700404DBF231401025DBFB71722
:100ED00000201387C7602310070023110700231287
:100EE000070023030700F94674B3231407002315F2
:100EF0000700231607009387C760014741469316F2
:100F00001700BE96239706000507E31AC7FE23873E
:100F100007022398070223990702238A0702239BCB
:100F20000702238C0702A38C070223A6018823A8AB
:100F3000018815C5238D0702130720FCA38DE70246
:100F40000547238EE702A38E0702238F0702A38F94
:100F5000070221472380E7047947A380E7048280C2
:100F6000EFF20F9D79712A842E89B2848145130690
:100F7000C0024800EFF0CF9E39E437040240130569
:100F80000408EF302060B7470040938747403EC2D7
:100F9000C1473EC6930700083ECC4C008567130549
:100FA00004084AC426C802CA02CE02D002D23ED4E5
:100FB00002D6EF304067854513050408EF30206AFC
:100FC00045616FF02F99370402401305C406EF30D6
:100FD000605BB7470040938747403EC293070008D5
:100FE0003ECC930700023ED24C0085671305C40631
:100FF0004AC402C626C802CA02CE02D03ED402D6D5
:10100000EF30606285451305C4064DBFEFF2AF9027
:101010003744004041112A89AE89328A13050440C1
:1010200001469305000436C6B7040240EF30504A2B
:101030001385C4068145EF3080621385040881451D
:10104000EF30E061B246D2854E853686B53BB715A6
:10105000002001469385C520014519370566B7155F
:101060000020130606809385C5A00545D53D05469D
:101070009305000413050440EF3090454A85813DF7
:1010800041016FF08F8CEFF2AF8AB7170020938782
:10109000C76003C7D70383C6C70383C5B70303C6A7
:1010A000A703C20662073697329703C6E70383C6D3
:1010B000F703A205BA950145913F37170020B737CE
:1010C00002401307C72023ACE74003D7A7424207DB
:1010D00041834D9B420741832395E74203D7A742B3
:1010E000420741832395E7426FF0CF8601A001A01C
:1010F000411122C637040040854513050440EF30F6
:10110000903005C9854513050440EF305031054640
:10111000856537050040EF30B02937050240854529
:1011200013050508EF30A05383A74185850723AA3F
:10113000F1843244410173002030EFE27FFF8545A6
:101140000545EF30607885450565EF3000766FF036
:101150006F80B73702401307C0042386E7401307A8
:101160008004A386E740371700201307476923A8A8
:10117000E740371700201307477523AAE7403717C2
:1011800000201307C72023ACE740371700201307C0
:10119000477923AEE74009472391E7422395074269
:1011A0002399E74223920742239607422393E7427B
:1011B0002397E7429387C18923800700A380070014
:1011C00023810700A381070023820700A382070071
:1011D00023830700A38307008280EFE27FF541119C
:1011E0008545414502C202C402C6EF30E06DC167C9
:1011F0003EC24C009147371501403EC6EF30C04813
:10120000B70702003EC24C00930780043715014027
:101210003EC6EF30604741016FE0DFF3EFE25FF180
:10122000370701401C4F93F707F3A1E593E78708C1
:101230001CCF39C1B73402404D3723800440113FE1
:1012400093079002A38104402380F440FD57238339
:10125000F440930710F8A380F4409D472381F440A5
:101260000967B7E700E01384044023A2E7106FE0AA
:101270007FEE93E7C70C6DBF9947373402402300D8
:10128000F4402945EF305029B7E700E0230004403F
:10129000096723A2E718E1BF9307F5FF93F7F70F5C
:1012A00019486367F812EFE21FE79387C189AA978D
:1012B0009C231389C189054793F7F70FE5EF85470D
:1012C0006305F5001147631DE500B737024083C78A
:1012D000C740054793F7F70F6310E50491832DA8E6
:1012E0001307E5FF1377F70F63EAE700B73702400C
:1012F00083C7D7400D4793F7F70FF9BF1307B5FF23
:101300001377F70F63E3E706B737024083C7E74079
:1013100093F7F70FE30405FD13F847000147630B4C
:101320000808B7340240328A9319250013F61700D3
:1013300093842442A18B2A84CE949DCF130700046A
:1013400009CA9C201307000C93F7070499E31307BD
:101350000008B737024093870741CE978843B70705
:10136000002052863E953A95B1A8B737024083C710
:10137000F74093F7F70F4DB709C69C2093F7070482
:10138000A9E737370240130707414E979DE6C2058C
:10139000C1810CC3B737024093870742CE97239091
:1013A00047019C2033058900014793F7C70F9CA094
:1013B00085471CA13A856FE05FD90843B707002035
:1013C00052863E95EF301022F1B71307000451B753
:1013D00005473A858280011122CE3734024026CC5F
:1013E0004ACA4EC852C656C45AC213040440782092
:1013F0007C301377F70F93762700E38F060E93F771
:10140000F70F13F70703930600026306D70A1306C4
:1014100000036302C73855EB13F7F703094663056A
:10142000C7241146630CC7304DE3104493F70704FB
:10143000C9CF83C7C18A1384A18A93F70706ADC3B6
:101440001387618A2310040018239387618A639CA1
:10145000E61A37170020130747691423B71700202F
:101460009387C760238DD7021433A38DD70234230B
:10147000238ED7023433A38ED7025423238FD7026F
:1014800054337823A38FD7022380E7047947A380BE
:10149000E704F8331377F70FA380E704EFF0BFBE3C
:1014A0001E20C207C18395E3B7370240239007424D
:1014B00013070004E5A093F7F70393061002638E69
:1014C000D70E63E5F602638BE704B737024009479E
:1014D0002383E740938707407244E2445249C2495C
:1014E000324AA24A124B05617300203013073002C2
:1014F0006385E70E13074002E399E7FC3E3893C784
:1015000007043EB83E38C207C183F19B93E727002A
:101510003EB89387C1892382070045BF9387A18A7C
:101520009E239384A18AC207C18381E793070008A1
:101530003EB083C7C18A93F70706C1FB83C7618AA0
:10154000154793F7F70F638EE7041947E39FE7F614
:101550009E201307F003130400046365F700822044
:10156000420441801389018B83290900371500202B
:101570002286CE8513054569EF30D0069E20A299BC
:1015800023203901818FC207C1839EA0B737024053
:101590002390874203D72742134707042391E7424A
:1015A0002DB7373702408347374083C6618993F7A9
:1015B0000708D58FA301F74009BF7E3093C7070402
:1015C0007EB07E30C207C183F19B93E727007EB0D7
:1015D0009387C189A3800700CDBD7E3493C70704DC
:1015E0007EB47E34C207C183F19B93E727007EB4AB
:1015F0009387C189A3810700B71700209387C7602D
:10160000238A0702D9B59C232547E31BF7E81389F2
:1016100041890355090093140601B7170020C180C2
:1016200093874765B715002026863E9593854569C3
:10163000EF30407B1E20858FC207C1831EA08357D9
:101640000900BE94C204C18023109900B73702403C
:1016500003D72742134707082391E74203D72742BE
:10166000318B2391E7422DBD3E3493C707083EB42A
:10167000B71700201387C76010440C2714374206A1
:101680004182A206CD8E8606BA969375F60FE8269D
:101690002182ECA6EC36F0B6102714370C2793877E
:1016A000C760A206D18E8506C206C18213F6F60F68
:1016B00010A7A182103714B710271437A206D18EB5
:1016C000371600209A061306C620B29614CC1427AB
:1016D00018372207558FBD4663F9E6009827238403
:1016E00007009837A384070010CCD427D837D02719
:1016F0002207558F0507420741839376F70FD4A73A
:101700002183D437D8B7D427D8372207558FB54689
:10171000E3FDE6DAB736024003D7A64293860640D9
:10172000420741834D9B42074183BAB6BA361367DD
:101730008700BAB60547A38CE70241BB3E38014794
:1017400093C707083EB81444B7170020938747692A
:10175000C206C18285076316D702B73702402398B5
:10176000E74203D7274342074183719B42074183E6
:101770002399E74203D72743420741832399E7424E
:10178000A9B303C6F703050742071346F6FFA38F65
:10179000C7064183C1B79307A00C371A00203EB09B
:1017A00093054A699C211386C18A98311CA2F621AF
:1017B0009387618A98A31387A18A16A3B621938879
:1017C000E18A03D845002390D8001385818A23102D
:1017D0000501034806001389A18A9389C18A1378F9
:1017E000080613064A691387E18A9386818A630093
:1017F000081803C80900938A018B13780802630D47
:1018000008149C23294893F7F70F638A070F636630
:10181000F8020947638DE7106368F700054763879F
:10182000E7081304F00F05A80D47638CE710254760
:10183000E399E7FE239A01888DA0130610026380C6
:10184000C7066366F6042D466387C70C13070002BC
:101850000144E398E7FC835709001307F00393045E
:1018600000046366F70083540900C204C18003AB1F
:101870000A00268613054A69DA85DA94EF30805625
:1018800023A09A009307F00F6319F420C1AC13074B
:1018900030021304F00FE360F7FC01446DBFB7178B
:1018A00000209387676423A0FA00C5BF9E2213041B
:1018B000F00FC207C183C5F39387418923900700C6
:1018C000835709001307F00393844189130400042C
:1018D0006366F70003540900420441808E20B71765
:1018E0000020938747652286BE9513054A69EF302D
:1018F000604F9E203E944204418082A079BF1E2109
:101900001304F00FC207C183B9F783D70800A1837E
:101910002382F18A59B79E221304F00FC207C183B4
:101920009DFB1E2393F7F70FA382F18ABDB71E21FB
:101930001304F00FC207C18399FF83C7418A9CA19A
:10194000A9BF9E221304F00FC207C183E39507F0DD
:1019500083C7518A1CA291B703C40900198013449C
:1019600014000588330480401374F40FEDB59C23F4
:10197000AD4593F7F70F63E3F51E95658A079385E9
:1019800045FEAE979C4382871E230D46A183938418
:10199000018B6388C70A636CF60005476388E7021A
:1019A0000947638BE70681471304F00F3DA0130737
:1019B0001002638EE70613072002E396E7FE9567A1
:1019C0009387074A9CC09307200239A09567138725
:1019D000C74883C7C74898C001440357090063F448
:1019E000E7002310F900835709001307F003930A57
:1019F00000046367F700835A0900C20A93DA0A01F8
:101A000003AB0400568613054A69DA85DA9AEF308B
:101A1000603D23A05401BDB51567130707423C3351
:101A200098C03823A207BA97C207C18375B79E2210
:101A30000947E31AF7F69567938747479CC0A54780
:101A400061BF1A2385461377F70F6305D70209CFC5
:101A500089466308D702E318F7F495671387874E22
:101A600098C083C7874E8DBF1387018298C083C7F4
:101A700001829DB795671387474C98C083C7474C31
:101A8000A1BF95671387474D98C083C7474DA9B736
:101A90001E2393F7F70F238BF18883C709000357A1
:101AA0000900E207E18763D807229307000463E691
:101AB000E70083570900C207C183035709001D8F40
:101AC000420741832310E900373702402310F742D1
:101AD000930700042311F742CDBA83C771891CA272
:101AE000035709008547E3FAE7FA2310F90075B7B1
:101AF0001E2393F7F70FA38BF1880547238CE1880A
:101B000069BF83C70900FD8B91EF1E23054793F73B
:101B1000F70FE394E7F89387918998231377E70FFA
:101B200098A3A5BF03C6090089477D8A6318F602FA
:101B30001E2393F7F70F9DE39E223737024093064B
:101B4000100893F7F70F130707406388D70263EC79
:101B5000F6006386C70291466388D702B737024012
:101B60001307F00C25BC93063008638DD70093064D
:101B70004008E395D7FE32BB0DB772B339BF2315CA
:101B8000070221BF72B711BF2319070239B783C7F4
:101B90000900FD8B9DE31E23054793F7F70FE39F95
:101BA000E7FA956783C7774293F70702C5DB938708
:101BB0009189982313671700A5B703C609008947C1
:101BC0007D8AE31DF6F81E2393F7F70FC1FB9A22D7
:101BD000B7370240930610081377F70F9387074033
:101BE000630AD70263EBE600630BC7029146E31773
:101BF000D7F6BA3B1367C70021A8930630086305E0
:101C0000D70293064008E31BD7F4BA3B13673700AB
:101C1000BABB61B5FA3313673700FAB3BDBDBA3743
:101C20001367C700BAB795BDFA3713673700FAB71D
:101C3000ADB5230006006DB583C70900231006006B
:101C4000FD8B85E383C791890144858B99C38947BF
:101C50001CA2035709008947E3F6E7C22310F900E5
:101C600015B183C5090089471304F00FFD89E3927C
:101C7000F5FE9E22373702409306100893F7F70FC0
:101C8000130707406385D70263E9F600638BB70249
:101C90009146E390D7FC3E3B35A09306300863861F
:101CA000D70293064008E396D7FA3E3B05A07E3361
:101CB0000D4701448D8BE39EE7F885471CA2014444
:101CC00049BF3E37B18B314721A07E378D8B0D4701
:101CD000E397E7FEDDB74207B737024041839387BA
:101CE000074001EB2390070213070004BAB36FF01B
:101CF000CFFD13070008DDBF9377170085C7A38BBF
:101D00000188238B0188A38C0188238C0188A3017F
:101D10000400EFF00FC40545EFF06F9B85477CA0F2
:101D20006FF08FFB9377470085CB91477CA02945C7
:101D3000EF20907E583093879189118B01CB9823A7
:101D40001367270098A39C236FF00FF9982313774C
:101D5000D70F98A36FF04FF878A06FF0EFF737F731
:101D6000FF1F9306877E9387C10E1307477F90223C
:101D700085068507A38FC7FEE39BE6FE82809387D7
:101D8000C10E93069005D4AF93068005D4BF138887
:101D9000E7019385C10E1386C10E9386C10E782E7E
:101DA000683E1347F7FF134515051377F70F78AE15
:101DB00068BE22072A9783C8F5008821420741831D
:101DC000330515036300A7029823238F07008507B7
:101DD000134757FAA38FE7FEE39807FFA38F060088
:101DE0000145828009068505E31B06FB9823238FA6
:101DF00007008507134757FAA38FE7FEE39807FF0D
:101E00008547FCBE05458280EFE28FB2AA841304A9
:101E1000900C894537350140EF20F0380DC5A68577
:101E200037350140EF20B0371304900C8545373526
:101E30000140EF20503719CD37350140EF20703683
:101E40001375F50F31A07D141374F40F79F001456B
:101E50006FE04FB07D141374F40F69F8CDBFEFE25B
:101E60002FAD37150140014693050008130505C045
:101E7000EF2050191305B004413F1305F00F6937E7
:101E80001305F00F51371305F00FBD3F1305F00F89
:101E90001384C10E953F930404011305F00FAD3771
:101EA00048A40504E31B94FE37150140054693053D
:101EB0000008130505C0EF20F0146FE0AFA9EFE2B2
:101EC0008FA50111854521453714014002C002C28A
:101ED00002C402C602C802CA02CC231E0100EF20BF
:101EE000B01E85444149130A00088A85130504C0C1
:101EF00052C04AC426C2EF202079130504C09305BE
:101F00000008EF20500F8A851305048026C04AC4BC
:101F100026C2EF206077130504808545EF20B00DC1
:101F200085454145EF20501AA1478A853715014064
:101F30003EC04AC426C2EF202075A1453715014096
:101F4000EF20700B056585455105EF20F0179307CD
:101F50000002E1498A85130504803EC04EC426C2B2
:101F6000EF208072930700043EC08A8591471305D5
:101F700004803EC4EF2040718A851305048052C05E
:101F80004EC426C2EF204070930700208A851305B7
:101F900004803EC04AC426C2EF20006F13050480AF
:101FA00093050020EF203005B70704013EC6B707B0
:101FB00002003EC8B707000285073ECA6C009D4775
:101FC00037350140FC8602CCEF2090170546894545
:101FD00037350140EF20901B0546854537350140D8
:101FE000EF20D01A854537350140EF209018056164
:101FF0006FE0AF95EFE22F92056501118545510520
:1020000002C002C202C402C602C802CA02CC231E17
:102010000100EF20700B8545214537140140EF206A
:10202000B00A85444149130A00088A85130504C093
:1020300052C04AC426C2EF2020658A851305048059
:1020400026C04AC426C2EF202064130504808545BB
:10205000EF20607A85454145EF201007A1478A852A
:10206000371501403EC04AC426C2EF20E061A145B9
:1020700037150140EF20207893070002E1498A8557
:10208000130504803EC04EC426C2EF20E05F9307D4
:1020900000048A85130504803EC04AC426C2EF208E
:1020A000A05E1305048093050004EF20C0748A85A8
:1020B0001305048052C04EC426C2EF20E05C930793
:1020C00000208A85130504803EC04AC426C2EF2042
:1020D000A05B1305048093050020EF20C071B707B3
:1020E00004013EC6B70702003EC8B70700028507D5
:1020F0003ECA6C009D4737350140FC8602CCEF207C
:1021000030040546894537350140EF203008054643
:10211000854537350140EF2070078545373501404B
:10212000EF20300505616FE04F82EFE26F803714DA
:102130000140014693050008130504C0EF20806CA0
:102140001545EFF07FCC1305F00FEFF0FFCBAA841D
:102150000546130504C093050008EF20A06A2685F4
:102160006FD05FFFEFD2DFFCC937058975FD6FD0F7
:102170007FFEEFD2FFFB37140140014693050008B4
:10218000130504C0EF2000681945EFF0FFC70546AE
:1021900093050008130504C0EF20C0666FD09FFBB5
:1021A000EFD21FF9B71401400146930500081385CB
:1021B00004C0EF20206513050009EFF0FFC40145BE
:1021C000EFF09FC40145EFF03FC40145EFF0DFC3DE
:1021D0001305F00FEFF05FC322051314050113057B
:1021E000F00FEFF07FC24180498C0546138504C093
:1021F0009305000842044180EF20C06022856FD023
:102200007FF5EFD25FF1411193070004B71401404D
:102210002E843EC24C009147AA89138504803EC695
:10222000328902C4EF204046014693050008138519
:1022300004C0EF20205D0D45EFF01FBD13550401D4
:102240001375F50FEFF05FBC135584001375F50F90
:10225000EFF09FBB1375F40FEFF01FBB0144931712
:102260000401C18363E727033714014005461305C2
:1022700004C093050008EF20E058C1473EC64C005B
:102280008547130504803EC4EF20004041016FD014
:10229000DFEB1305F00FEFF03FB7B387890088A39A
:1022A000050475BFEFD2DFE84111371401409307F1
:1022B0000004AA843EC24C009147130504803EC628
:1022C00002C4EF20603C014693050008130504C0DA
:1022D000EF2040530D45EFF03FB313D504011375C4
:1022E000F50FEFF07FB213D584001375F50FEFF003
:1022F000BFB113F5F40FEFF03FB11305F00FEFF09E
:10230000BFB0AA840546130504C093050008EF205A
:10231000604F268541016FD0FFE3EFD27FE12A892C
:1023200037150140014693050008130505C0EF204D
:10233000604D13058004EFF03FAD0145EFF0DFACD9
:102340004145EFF07FAC0145EFF01FAC1305F00FF6
:10235000EFF09FAB01449304C0031305F00FEFF0BF
:10236000BFAAB307890088A30504E31894FE3715B4
:102370000140054693050008130505C0EF2080487D
:102380006FD05FDDEFD23FD937040240584CC167B0
:10239000F9177D8F58CC1858AA84AE89F98F1CD8AC
:1023A000930715005CDC08D437150140328993058A
:1023B00000080146130505C0EF20C044AD479CB09E
:1023C00093D70901BCA093D78900BCB02382340104
:1023D000930759005CD81909232024035C4C130A85
:1023E000C401930A040393E717005CCC1C5893E7DD
:1023F00017001CD813050020EF20A02765DD13056A
:102400000020EF20E027371501400546930500081E
:10241000130505C0EF20003F6FD03FD3EFD2BFCFF1
:10242000B7040240AE89CC4C32894166411179161D
:1024300036C63AC43EC2F18DCCCC8C582A84138A5D
:10244000C4016D8E90D813061500D0DC88D43715E2
:1024500001400146130505C093050008EF20803AAE
:102460002D4610B013D6090130A013D6890030B024
:102470002302340113065900D0D890D0D04C224703
:10248000924713661600D0CC9058B24613D88700F6
:102490001366160090D8135619003A964206938A8E
:1024A000040393F7F70F4182370502400C51E36FA5
:1024B000B9FE6360C70413050020EF20801B65DDB3
:1024C00013050020EF20C01B13050002EF20601A47
:1024D00065DD13050002EF20A01A371501400546FF
:1024E00093050008130505C0EF20C03141016FD0EE
:1024F000DFC593553700B695038505000904635D74
:102500000500230F04FFA30FF4FE882105074207EF
:10251000060588A1418371BF2830230FA4FE4820FF
:10252000A30FA4FEDDB7EFD23FBE01119307000455
:10253000B71401402E843ECA1385048091474C088D
:1025400032C602CC3ECEEF20201432462204B70B16
:102550000020220637090240B30A8600938404C093
:10256000094C138B4B0F13090903631554010561C3
:102570006FD01FBDEFF0FFBFEFF0DFBE0146930548
:1025800000082685EF20002813051008135A0401BF
:10259000EFF09F87137AFA0F528593598400EFF07A
:1025A000BF8693F9F90F4E85EFF01F860145EFF0D6
:1025B000BF850546930500082685EF20A024EFF08F
:1025C0007FBAEFF01FBBEFF0FFB90146930500089B
:1025D0002685EF20202381454A85238A8B0FA3007F
:1025E0004B0123013B01A3010B00EF2040079307A0
:1025F0004010232669012322F90085454A85EF20F2
:10260000000613050020EF20C00665DD130500203D
:10261000EF2000070546930500082685EF20801E61
:1026200013040410EFF01FB489B7EFD2DFAE4111ED
:10263000328993070004B7190140139485003EC204
:102640001385098091474C002209B70A0020B7047E
:10265000024002C43EC62299EF200003938909C0BC
:10266000094B138A4A0F9384040363152401410123
:102670006FD0BFADEFF0FFAFEFF0DFAE01469305D7
:1026800000084E85EF20001893570401A300FA00BC
:1026900081459357840026852301FA00238A6A0F17
:1026A000A3010A00EF10B07B9307401023A644015A
:1026B000DCC085452685EF10907A13050020EF10C9
:1026C000507B65DD13050020EF10907B05469305D8
:1026D00000084E85EF20001313040410EFF09FA8AC
:1026E00069B7EFD2FFA4AA8437140140EFF07FA8A6
:1026F000EFF05FA7014693050008130504C0EF2023
:10270000601013051008EFF02FF013D58400EFF0E0
:10271000AFEF13F5F40FEFF02FEF0145EFF0CFEE31
:10272000054693050008130504C0EF20A00DEFF047
:102730007FA36FD03FA2EFD2BF9FAA84371401407E
:10274000EFF03FA3EFF01FA2014693050008130529
:1027500004C0EF20200B13050002EFF0EFEA13D5C1
:102760008400EFF06FEA13F5F40FEFF0EFE90145A5
:10277000EFF08FE9054693050008130504C0EF202C
:102780006008EFF03F9E6FD0FF9CEFD27F9AAA8443
:1027900037140140EFF0FF9DEFF0DF9C01469305F9
:1027A0000008130504C0EF20E00513052005EFF035
:1027B000AFE513D58400EFF02FE513F5F40FEFF03C
:1027C000AFE40145EFF04FE405469305000813051B
:1027D00004C0EF202003EFF0FF986FD0BF97EFD237
:1027E0003F95AA8437140140EFF0BF98EFF09F9710
:1027F000014693050008130504C0EF20A00013054F
:10280000800DEFF06FE013D58400EFF0EFDF13F5EC
:10281000F40FEFF06FDF0145EFF00FDF0546930592
:102820000008130504C0EF10F07DEFF0BF936FD0E8
:102830007F92EFD25F8E41112A8A930700043715E9
:1028400001403EC2AE8491474C00130505803EC650
:102850001374FA0702C4EF10306393577A001359C8
:1028600044003D88858B11C0050913797900630503
:102870000900850793F7F70F93F91700269A330598
:102880009A404205418111C0D1E0338AA400BD4A7B
:1028900033049A404204418063120908639C09088A
:1028A0002689330A94009309F00F33052A41420523
:1028B000418163E1290B93F704F03E94130700F084
:1028C00093D78400B387E70242044180BE94C204D8
:1028D000C18013F9F407135A49009D809379FA0FC8
:1028E0001379F90081C82285130404084204EFF02B
:1028F000DFE94180A28463970906120A52944204D8
:102900004180631B090641016FD03F84FD14C2045E
:102910000504EFF01FDDC1803D8895B7E3F29AF81A
:10292000C1142285C2040509EFF0FFE0C1801379CC
:102930007900B9BF9307F007E3F497F622859384F3
:1029400004F8130404084204C204EFF01FE44180B9
:10295000C180B9B7130909F04209EFF05FE81359D4
:102960000901A1B72685C104C204FD19EFF0BFDC3F
:10297000C18093F9F90F41B72285050442047D19FE
:10298000EFF03FD641801379F90FA5BFEFD24FFA90
:1029900037140140AA8401461305048093050020E2
:1029A000EF1050660146A14537150140EF109065C4
:1029B00001469305000413050480EF10B0642685DA
:1029C000EFF08FC413050480054693050020EF1037
:1029D00070630546A14537150140EF10B0626FD016
:1029E0006FF7EFD2EFF437140140AA8401461305C4
:1029F000048093050020EF10F0600146A1453715D3
:102A00000140EF1030600546930500041305048073
:102A1000EF10505F2685EFF02FBF130504800546A9
:102A200093050020EF10105E0546A14537150140C3
:102A3000EF10505D6FD00FF2EFD28FEF37140140DF
:102A4000AA8401461305048093050020EF10905BD3
:102A50000146A14537150140EF10D05A05469305B0
:102A6000000413050480EF10F05913D5840013758A
:102A7000F50FEFF06FB913F5F40FEFF0EFB81305A2
:102A80000480054693050020EF10D0570546A14568
:102A900037150140EF1010576FD0CFEBEFD24FE951
:102AA0001307A002A38DE1821307B002238EE182F7
:102AB0001307C002238DE18213076003A38CE18218
:102AC0001307000A239FE182130700052391E18485
:102AD0002380018461472382E18413078007A38A4E
:102AE000E182130780FA238BE182FD57A38BF182E9
:102AF0002945238CF18237140140EF2040250146FF
:102B0000854513050480EF10F04F2945EF20202460
:102B10000546854513050480EF10D04E2945EF206A
:102B200000234545EFF09FE62945EF20402213059D
:102B3000100BEFF0BFE51545EFF0BFEA1305C0033A
:102B4000EFF03FEA1305C003EFF0BFE91305200BD8
:102B5000EFF0DFE31545EFF0DFE81305C003EFF01A
:102B60005FE81305C003EFF0DFE71305300BEFF06C
:102B7000FFE11545EFF0FFE61305C003EFF07FE638
:102B80001305C003EFF0FFE51545EFF09FE51305D2
:102B9000C003EFF01FE51305C003EFF09FE413053A
:102BA000400BEFF0BFDE0D45EFF0BFE31305000C67
:102BB000EFF0DFDD1305B00AEFF0BFE22D45EFF0D7
:102BC0005FE21145EFF0FFE11305100CEFF01FDCA1
:102BD0001305500CEFF0FFE01305200CEFF01FDBA6
:102BE0003545EFF01FE00145EFF0BFDF1305300C76
:102BF000EFF0DFD91305D008EFF0BFDE1305A00614
:102C0000EFF03FDE1305400CEFF05FD81305D0085E
:102C1000EFF03FDD1305E00EEFF0BFDC1305500CC5
:102C2000EFF0DFD63D45EFF0DFDB1305000EEFF0F0
:102C3000FFD51D45EFF0FFDA3945EFF09FDA21456A
:102C4000EFF03FDA1D45EFF0DFD94145EFF07FD9D6
:102C50001D45EFF01FD90945EFF0BFD81D45EFF036
:102C60005FD82545EFF0FFD73D45EFF09FD713051F
:102C70005002EFF01FD713056003EFF09FD6014518
:102C8000EFF03FD62145EFF0DFD51145EFF07FD5CE
:102C90004145EFF01FD51305100EEFF03FCF29454A
:102CA000EFF03FD43545EFF0DFD32145EFF07FD390
:102CB0001D45EFF01FD33D45EFF0BFD21D45EFF0AE
:102CC0005FD20945EFF0FFD11D45EFF09FD12545BB
:102CD000EFF03FD13D45EFF0DFD013055002EFF0AC
:102CE0005FD013055003EFF0DFCF0145EFF07FCF4A
:102CF0002545EFF01FCF1145EFF0BFCE4145EFF076
:102D00005FCE1305C00FEFF07FC813050008EFF08A
:102D10005FCD1305A003EFF07FC71545EFF07FCC23
:102D200013056003EFF09FC683C7D18313058007A7
:102D300091C705476396E7001305800AEFF07FCA45
:102D400013059002EFF09FC46FD0CFC0EFD2AFBC9D
:102D500083C4018403C44184B389A40003C5B1833F
:102D60003309B400B2943694EFF05FC213D58900F2
:102D70001375F50FEFF0FFC613F5F90FEFF07FC6EF
:102D800013D584001375F50FEFF0BFC513F5F40FDD
:102D9000EFF03FC503C5C183EFF05FBF1355890056
:102DA0001375F50FEFF0FFC31375F90FEFF07FC345
:102DB000135584001375F50FEFF0BFC21375F40FB0
:102DC000EFF03FC203C5A183EFF05FBC6FD0EFB758
:102DD000EFD26FB40111930700042A893ECA371558
:102DE0000140C147AE893ECE4C088547130505809A
:102DF0003AC63ECC3284B684EF10100933068900FF
:102E0000B3869900FD167D164A85CE85EFF01FF436
:102E10003247B70700201389470F135687009306E0
:102E200009109387470F90A398B38907E39DD7FEB6
:102E300033049402B71401401385048001469305BE
:102E40000020EF10301C0146A14537150140EF105E
:102E5000701B13850480054693050004B7040240E7
:102E6000135A7440EF10101A814993840403930A93
:102E700000106390490706041374F40F0DC8B704DB
:102E80000240138504038145EF10607D1385040320
:102E90002326250140C18545EF10607C13050020E5
:102EA000EF10207D65DD13050020EF10607D3715E4
:102EB000014005469305002013050580EF1090148E
:102EC0000546A14537150140EF10D01305616FD0BD
:102ED000CFA781452685EF10807823A6240123A261
:102EE000540185452685EF10807713050020EF10EB
:102EF000407865DD13050020EF108078850995BFC7
:102F0000EFD20FA01C2118314111A207BA97C207B6
:102F100032C6C18305476396E7123821A38DE1824B
:102F20003831238EE1825821238DE1825C311839BA
:102F3000A38CF1821C292A84A207BA97239FF182CD
:102F40003C293839371D0140A207BA9758292391E7
:102F5000F1842380E18458392E892382E1841C2D59
:102F6000930C0002930DF00FA38AF1821C3D238B7A
:102F7000F1823C2DA38BF1823C3D2945238CF182CB
:102F8000EF10F05C0146854513050D80EF109007AA
:102F90002945EF10D05B13050D8005468545EF10E0
:102FA00070062945EF10B05A034D0402B306940190
:102FB000882293F67C00A9E693178501E18763D800
:102FC000070203C59183EFF07F9C631A090403C5D0
:102FD0005183EFF01FA1324783D6218403D6E183CA
:102FE00081450145EFF0DFDE41016FD02F950605E9
:102FF000850C93070008137DF50FE399FCFAD1B710
:1030000093168D01E18663C70600EFF09F9D1315AF
:103010001D00F9BFE307B5FBEFF05F97CDBF854714
:103020006315F90003C561836DB789476315F9001E
:1030300003C5718379BF8D47E31FF9F803C5818309
:1030400049BFEFF0BFA541BFEFD28F8E7971130654
:1030500000028145080802C202C402C6EFD04F90A8
:1030600085452145EF105006854513050020EF10DA
:10307000B0053715014089474C00130505C03724BA
:1030800001403EC202C6EF102060130504409305C4
:103090005002EF10604EB7070E003ECE0C08854779
:1030A000130504402302F10202C802CA02CC02D076
:1030B000EF10003A130504408545EF10C03E83270A
:1030C00044403707000113040440D98F5CC04561B8
:1030D0006FD04F88EFD2CF8537240140AA859D4617
:1030E000130504400546EF10003D93070007232E0B
:1030F000F44213050440930700042326F4442A8471
:1031000089452285EF10A04665DDB727014003A55C
:10311000C744420541816FD0EF83EFD26F8139718F
:103120002A842E89B28481451306C002480836C617
:10313000EFD00F8385450545EF1020772285EF10EE
:103140006044B246C1473ECE930700083ED44C08C7
:10315000896722854ACA26CC36D03EDC02D202D606
:1031600002D802DA02DEEF10004C21616FC09FFE30
:10317000EFC21FFC39712A842E89B284814513065F
:10318000C002480836C6EFC0BFFD85450545EF10B3
:10319000C0712285EF10003FB246930700083ED46D
:1031A0004C088D6722854ACA26CC36D03EDC02CE3A
:1031B00002D202D602D802DA02DEEF10C046216146
:1031C0006FC05FF9EFC2DFF639712A84AE843289AD
:1031D00081451306C002480836C6EFC07FF8854512
:1031E0000545EF10806C2285EF10C039930700046D
:1031F000B2463ED2930700083ED485673EDC4C08B9
:10320000916722854ACA26CC36D03EDE02CE02D64F
:1032100002D802DAEF10204121616FC0BFF3EFC284
:103220003FF139712A842E89B28481451306C00288
:10323000480836C6EFC0DFF285450545EF10E06669
:103240002285EF102034C147B2463ECE93070008D6
:103250003ED4930700103ED64C088D6722854ACA9B
:1032600026CC36D03EDC02D202D802DA02DEEF10E3
:10327000803B21616FC01FEEEFC29FEB370502401C
:1032800013058505930700665CC18545EF10203D59
:103290006FC05FECEFC25FE7411193070004AA849F
:1032A0003EC237150140C1472E843EC64C008547BB
:1032B00013050580328A3689BA893EC4EF10C03CB6
:1032C00083C70184956A0E0ABE9483C74184C204F1
:1032D000C1803E9403C5B18342044180EFF00FEBFF
:1032E00013D58400EFF0EFEF13F5F40F9D04C20443
:1032F000EFF02FEFC18013D58400EFF08FEE13F5C0
:10330000F40FEFF00FEE03C5C1838144938A4A01A5
:10331000EFF0CFE713558400EFF0AFEC1375F40F27
:103320001D044204EFF0EFEB418013558400EFF0F1
:103330004FEB1375F40FEFF0CFEA03C5A183130B26
:103340000008A14BEFF08FE4B3874401D69703CC7C
:1033500007000144B3578B40B3F787014A8591E3D7
:103360004E850504EFF04FEDE31674FF8504E39DF1
:1033700084FC41016FC0DFDCEFC2FFD92A84AE8438
:103380003289B6893A8A930A800E0306090019E247
:103390006FC0BFDB2285210442045287CE8613769C
:1033A000F60FA6854180EFF0FFEE63F68A00A904D0
:1033B000C204C18001440509C9BF930705109821C3
:1033C0001105230EE5FE9831A30EE5FEB821230F6B
:1033D000E5FEB831A30FE5FEE313F5FE8280EFC2F0
:1033E000BFD24111930700043EC237140140C147C8
:1033F000AA89AE8A130504803EC64C0085473689EB
:10340000B2843A8A3EC4EF1020281386F4FFB384B6
:1034100024039306F9FF4E964E85B7090020D696F1
:10342000D6859389490F37090240EFF03F92860411
:1034300093FA04F0D29A114B130404801309090380
:10344000938B6900631E5A0B93F4F40FDDC4371499
:1034500001409147130504804C003EC63709002007
:10346000EF10802226861305490FD285EFE09FF1E9
:10347000C147130504804C003EC6EF10E020130541
:103480000480014693050020EF10C0370146A14596
:1034900037150140EF1000371305048005469305EA
:1034A000000437040240EF10E035130504038145A2
:1034B000EF10E01A1309490F130504031909232615
:1034C000250144C18545EF10801913050020EF1038
:1034D000401A65DD13050020EF10801A37150140F2
:1034E00005469305002013050580EF10A031054621
:1034F000A14537150140EF10E03041016FC05FC4B6
:103500004C0022855AC6EF10201813060010D285F1
:103510004E85EFE03FE7C1474C0022853EC6EF10E5
:10352000A0160146930500202285EF10A02D01462C
:10353000A14537150140EF10E02C05469305000426
:103540002285EF10202C81454A85EF10401193070A
:103550000010232679012322F90085454A85130AA4
:103560000A10EF10C00F13050020EF10801065DD6A
:1035700013050020EF10C01022850546930500209A
:10358000EF1040280546A14537150140EF10802770
:1035900055BDEFC2FFB90111930700043714014074
:1035A0003ECAC147AA842E893ECE4C0885471305E2
:1035B00004803ECC32C636C4EF10000DA24632461F
:1035C000CA85FD167D16CA9626962685EFF00FF859
:1035D00013050480054693050004EF10A02213058F
:1035E0000480014693050020EF10C0210146A1454B
:1035F00037150140EF10002105616FC0BFB5EFC264
:103600003FB32A8937150140AE8401469305002057
:1036100013050580EF10001F0146A1453715014035
:10362000EF10401E37040240814513050403EF10DC
:103630000003232E240344D813050020EF10400478
:103640001304040385452285EF1060011305002053
:10365000EF10200265DD13050020EF106002371522
:10366000014005469305002013050580EF108019E1
:103670000546A14537150140EF10C0186FC09FAD3A
:10368000EFC21FAB13050020EF00B07E65DD130510
:103690000020EF00F07E371501400546930500201D
:1036A00013050580EF1000160546A14537150140AA
:1036B000EF1040156FC01FAAE1473305F502370828
:1036C00000201308C8285143130E80021307450633
:1036D000931807019307C50593D80801931E860127
:1036E00093DE8E4163D20E08B30EF8002380CE0124
:1036F0008507C2070606C1831376F60FE390F8FE2E
:103700009307C50642071396070141834182D148BA
:1037100013038002139E8501135E8E41635B0E04CA
:10372000330EE80023006E0005074207860541833B
:1037300093F5F50FE310E6FEC207C18313054507B5
:1037400051471306800293958601E18563D80502EF
:10375000B305F80090A18507C2078606C18393F6DA
:10376000F60FE312F5FE8280B30EF80023806E00A0
:1037700041B7330EE80023001E017DB7B305F80002
:1037800098A1D1BFB707002001479387C7289306A8
:10379000C0053306F700230006000507E31BD7FE2C
:1037A0001307C005D1459306C0653386E7000CA218
:1037B0000507E31CD7FE238E0764A38E0764238FBF
:1037C0000764A38F0764828013DE8600135386008C
:1037D00081476393E700828013D837002A988308D3
:1037E000080063DF08002380650090B1834808006B
:1037F0008507C207860823001801C1838905D1BF48
:103800002380C50194B1DDB7EFC29F8F0111BE893E
:10381000930700043ECAB7140140C1472A8BAE8B00
:10382000138504803ECE4C088547328936843ECCD1
:10383000BA8A428AEF0050659306F4FF3304890286
:103840001306F9FFDE965A96DE855A85EFF00FD003
:103850000149914B93840480935774003EC6370B03
:103860000020B247631CF90C1374F4076305040CC1
:10387000B71401409147138504804C083ECEEF00F9
:10388000B06013563400931549000506D69513858C
:10389000C18BEFE03FAF370900202287D2864E86EA
:1038A0009305A90F1385218CEFF01FF2C1471385F3
:1038B00004804C083ECEEF00305D13850480014645
:1038C00093050020EF0010740146A1453715014013
:1038D000EF00507313850480054693050004B70478
:1038E0000240EF003072138504038145EF0030572A
:1038F000138504031309A90F23262501060440C1DB
:103900008545EF00D05513050020EF00905665DD8A
:1039100013050020EF00D0563715014005469305EA
:10392000002013050580EF00F06D0546A145371511
:103930000140EF00306D05616FC05F804C08268547
:103940005ECEEF007054931549004146D69513851D
:10395000C18BEFE03FA3D286130700054E86930587
:10396000AB0F1385218CEFF03FE6C1474C0826854D
:103970003ECEEF0070510146930500202685EF00F2
:1039800070680146A14537150140EF00B067054654
:10399000930500042685EF00F066B7070240138503
:1039A00007038145EF00B04BB707024013850703BB
:1039B0001307AB0F58C5930700105CC18545EF0096
:1039C000104A13070003D2864E869385A19713856C
:1039D000C18CEFF07FDF13050020EF00904965DD1B
:1039E00013050020EF00D0490546930500202685E9
:1039F000EF0050610546A14537150140EF0090608A
:103A0000050985B5EFC2CFEF330AD60201113E8C0E
:103A1000930700043ECAB7190140C1472A8B2E8480
:103A2000B304C5003ECE1385098085474C083A890A
:103A3000C28B3ECC36C2EF00304592461386F4FF6F
:103A4000A285FD16A2965A85EFF04FB0937AFA0739
:103A5000135A7A00220993174A003EC2B70C00207D
:103A6000CA97A20B3EC4DA8D4AC693890980938C0B
:103A70004C0FA2476313F90863850A2437150140E8
:103A800091474C08130505803ECEEF00F03FB2474A
:103A900012474146B385E7001385C18BB709002063
:103AA000EFE05F8E050401499389490F130D00145F
:103AB000938B0BEC63FE9D02B305A4031315190051
:103AC00093981D0013170901338AB44133862A41A4
:103AD0004E954183DE95C6956364461513161A000C
:103AE00042064182E2879386218CEFE03F93529910
:103AF0000504DA8DE36059FD25AA91474C084E85EF
:103B00003ECEEF0070384146CA851385C18BEFE089
:103B10007F87014A130E0014930E00081303F00769
:103B200063FD9D0EB307C40393951D00DE95131529
:103B30001A0013170A01338DB44166954183BE956F
:103B4000B3874E4163E9A70313161D004206418265
:103B5000E2879386218CEFE07F8C6A9A930E0008AF
:103B6000130D1400130E00141303F0070504DA8D6F
:103B7000E37843FB15A079563306C702E2879386A4
:103B8000218C228D1306061042064182EFE01F8928
:103B900093880D08B38D4841C1474C084E853ECEF1
:103BA000EF00902E0146930500204E85EF009045D2
:103BB0000146A14537150140EF00D0440546930565
:103BC00000044E85EF00104437040240130504033F
:103BD0008145EF00D02813050403232695019307A0
:103BE00000105CC18545EF00902713050020EF0011
:103BF000502865DD13050020EF0090280546930549
:103C000000204E85EF0010400546A14537150140C4
:103C1000EF00503F41096A84A9BD130D1400B9B7E4
:103C2000060642064182E2879386218CEFE00FFF71
:103C300037140140C147130504804C083ECEEF0005
:103C4000B02413050480014693050020EF00903B4B
:103C50000146A14537150140EF00D03A1305048015
:103C6000054693050004EF00F039370402401305C0
:103C700004038145EF00B01EB707002013050403BD
:103C80009387470F5CC5860A232255018545EF00BF
:103C9000101D13050020EF00D01D65DD1305002069
:103CA000EF00101E3715014005469305002013054F
:103CB0000580EF0030350546A14537150140EF007E
:103CC000703405616FC08FC7EFC28FC63E963A88C9
:103CD000B687131786009306000413060002EFF060
:103CE000BFB26FC02FC7EFC2AFC43E963A8813175A
:103CF0000601B68741839306000413060002EFF025
:103D00007FD06FC02FC5EFC22FC00111B714014083
:103D1000930700042A892E8A138504803ECA4C0822
:103D20009147BA8BB68932C63ECE02CCEF00D01591
:103D300032469307E005370400200C221305440F98
:103D400093DA8B009385F5F5B385F5021C321306E3
:103D50000002130B440F9387F7F593FBFB0F130C33
:103D60000010BE95856793870727BE959605EFE0FF
:103D70004FC9C147138504803ECE4C0885473ECCD1
:103D8000EF0090109306FA001306F900D2854A85D9
:103D9000EFE0DFFB13850480014693050020EF0070
:103DA00070260146A14537150140EF00B025138567
:103DB000048005469305000413DA8900EF0090247F
:103DC00081441309440F93F9F90F13D43400B30756
:103DD00064018387070063D107045285EFE0CF8237
:103DE0004E85EFE06F824A941C20850486071CA054
:103DF000E39D84FD3715014005469305002013051A
:103E00000580EF0030200546A14537150140EF0041
:103E1000701F05616FC0CFB25685EFD0FFFE5E8583
:103E2000C9B7EFC2EFADAE89B70A0020370A02402A
:103E3000B735014079712A89B68C13050A039306B8
:103E40000010B105328C13864A0F3AC0EFF0EFAC88
:103E5000930700043ECAB7140140C147138504808C
:103E60003ECE4C0885473ECCEF0010029386F90009
:103E70001306F900CE854A85EFE05FED0247856BBA
:103E80004A84931787003EC093D78C003EC2938725
:103E90004A0F3EC693070901014B938404803EC438
:103EA000130D0008938B0B27130A0A0391474C0844
:103EB00026853ECEEF00407DCE8A814D1308001E40
:103EC0009306F007A2476373F414B3880A03B2475A
:103ED00013951D00931514003E958247B309894040
:103EE00013860901BE95C695B308BD4163E6C802B5
:103EF000060642064182EFE0CFB093870D01B38DF5
:103F0000F9001308001E93891A009306F007850A2A
:103F10004A84E3F9B6FB39A879563386CD021304F7
:103F200004083304B441D6891306061042064182C0
:103F3000EFE02FAD83450C009307E00541469385E4
:103F4000F5F5B385F50283471C0008109387F7F554
:103F5000BE95DE959605DA95EFE0AFAAB70700208B
:103F60001387470F8147101893D63700B29603C6C0
:103F700006FF93158601E18563D605009245A300EF
:103F800097010CA306062388C6FE85070907E39C54
:103F9000A7FDC1474C0826853ECEEF00E06E0146E6
:103FA000930500202685EF00F0050146A145371551
:103FB0000140EF0030050546930500042685EF001B
:103FC000700481455285612D930700102322FA0069
:103FD00085455285692513050020612D6DDD13058A
:103FE0000020792D0546930500202685EF009001DD
:103FF0000546A14537150140EF00D000410B93075E
:104000000002E315FBEA45616FC04F9393891A00E4
:10401000FDBDEFC2EF9139712A89AE841145854506
:1040200032C602D202D402D602D802DA02DC02DEA2
:1040300002CC02CE23100102EF0010098545054590
:10404000EF00700AE1473715014009443ED64C1095
:104050008547130505803ED422D23D252C0837051F
:104060000040231E2101E484231F0100231D0100C1
:1040700023000102EF0070193246C16793870707DA
:104080000C1837050040231BC1023ED8231C8102B7
:10409000EF003024930790020C1837050040231BD3
:1040A000F102231C810202D8EF00901B81453705E5
:1040B0000040EF005032814537050040EF0090325C
:1040C000854537050040EF00702F854537050040D6
:1040D000EF00902B21616FC0EF87EFC2EF820545A3
:1040E000EF0080734D24EF009040716513050520AB
:1040F000EF005049EFC01FC3EFC09FC5EFD0EF8363
:10410000EF00C073AA850545EFD04F91B717002087
:104110009387C760054B238A670303C76703238B15
:10412000070203C7770337040240370A0020B73479
:10413000014013050403814613064A0F9385C4000A
:10414000A38B0702EFE07FFD1305C4018146130630
:104150004A0F9385C400EFF0AF811389C10C130699
:10416000690081469385C10C13054409EFF08F85E2
:10417000EFE09FEDEFD0BFD4EFE08F822312A900D4
:10418000EFD0FFBDEFD0BFCD254523AA0184EFE0DE
:104190007FF42391A1861385A110EFE00F98EFD053
:1041A0001FBE9389C10C19C1A3806187B704100099
:1041B000138504E08145A38E0186EFC0EF849385CB
:1041C00004F013054A0F13060008EFE08F83C16463
:1041D000EFD05FE213054A0F1386F4FF8145EFE04D
:1041E0003FD203D5E183094B37F70E002396A10C8C
:1041F00083D52184130505F6334565032391B90062
:104200009385C5FBFD471388F4FF130707C093068A
:1042100040041306000AB3C56503EFF0EFDE83C761
:104220001186C5E303D5E18383D521843756000089
:10423000130505F633456503938545048585F91512
:10424000C2051387F4FFFD4613064640C1814205AF
:104250004181EFF06F9203D5E18383D521843756F6
:104260000000130505F633456503938545048585F0
:10427000F915C2051387F4FFFD461306C640C18138
:104280001305050242054181EFF00F8F03D5E1834D
:1042900083D5218437560000130505F633456503A1
:1042A000938545048585F915C2051387F4FFFD46FE
:1042B00013064641C1811305050542054181EFF012
:1042C000AF8B8D67938797032393F900EFC02FC6B9
:1042D000014681451305B003EFF0BFD3EFF08FCA5D
:1042E00037060020B70500403705024093060066F8
:1042F0001306C6289385850313058505EFE03FF275
:1043000005469305002037050040EF00700A8545FB
:1043100037050040EF00D005EFE01FF62545A382EA
:10432000018423AA0184EFE0FFDA83D72186AA97CC
:10433000C207C1838583938737F82391F186EFC045
:104340002FC1F5BFB71702409843B70600F993860F
:10435000F6F51367170098C3D84313670705D8C34A
:10436000D843758FD8C3372702401443F19A14C33A
:10437000144393E6260014C3D8431377F7F0D8C349
:10438000D843D8C38280B7160240DC42918313F72A
:10439000F700B707002093870700BA979C23D44201
:1043A0003777DC0293F7F70F130707C093F6060879
:1043B0003356F70099E23356F702B707002023A0DF
:1043C000C702828001A097C1FF1F9381A1451711E9
:1043D0000020130121C3171500001305A51297C56E
:1043E000FF1F938525C21386818263FAC50083224D
:1043F000050023A0550011059105E3EAC5FE1385CC
:10440000818297D5FF1F9385253D6377B5002320D3
:1044100005001105E36DB5FEFD42739002BC8D42AF
:1044200073904280930280087390023097C2FFFF1E
:10443000938282BD93E2320073905230EFF09FF08E
:10444000970200009382A2C9739012347300203047
:104450005C413707F1E01307F7EF944D7D8F9C41E6
:10446000D58FD44DD58FD441A206D58FD98F5CC1BD
:104470001C4537F7F1FF1307D77FD4457D8F9C4943
:10448000D58F94458606D58FD98F1CC55C553707C7
:1044900010FF7D177D8FDC29FD1793F7F70FD207EB
:1044A000D98F5CD582801C4589C593E717001CC550
:1044B0008280F99BEDBFA54763F7B7048D4713874B
:1044C00065FF3307F7020328C5009D47B397E70050
:1044D00093C7F7FFB3F70701B396E600DD8E54C527
:1044E000994763E3C70495477D163306F60258598A
:1044F000FD47B397C70093C7F7FFF98F3396C50001
:104500005D8E50D982800D473387E502032805016F
:104510009D47B397E70093C7F7FFB3F70701B3963B
:10452000E600DD8E14C96DBFB14763E2C70295474F
:1045300065163306F6021859FD47B397C70093C7AF
:10454000F7FFF98F3396C5005D8E10D982809547AD
:104550004D163306F6025855FD47B397C70093C76B
:10456000F7FFF98FB395C500DD8D4CD582800841EA
:104570006D8D3335A00082803C4993F707E0DD8DD7
:104580002CC982801C4141677917F98F1CC12320F7
:1045900005002322050023240500B7070240232637
:1045A0000500138787006317E500D8431367F700FA
:1045B000D8C382801387C7016316E500D843136709
:1045C000070FFDB7138707036318E500D843856617
:1045D000938606F0558FE9BF138747046315E500FE
:1045E000D843BD66C5BF138787056316E500D8436A
:1045F000B7060F00C5B71387C7066316E500D84393
:10460000B706F000C1BF138707086316E500D8435B
:10461000B706000FC1B713874709E31CE5F8D84375
:10462000B70600F045BF1C4161773D0794517D8F6F
:104630009C45D58F9449D58FD449D58F944DD58F2E
:10464000D44DD58FD451D58F9455D58FD98F1CC1CA
:10465000DC455CC19C411CC5DC415CC582801C41C1
:1046600089C593E717001CC1828041677917F98FCC
:10467000DDBFB70702409C437D8D3335A0008280AB
:10468000B7070240C8C38280984593770701137823
:10469000F70081C7DC413368F8009441814713F685
:1046A000F60F39C21C410146854E3D4F930F8002E3
:1046B00093028004214EB398CE00B3F516016391A6
:1046C000B80213132600B3156F0093C5F5FFED8FE5
:1046D00033136800B367F3006317F70D232A15013E
:1046E0000506E31AC6FD1CC14166130606F0758E69
:1046F0003DC23716014093050680631BB50A83A7A8
:104700004180A145854E3D4F930F80029302800466
:10471000414E3393BE0033F666006312C302139614
:1047200025000116B318CF0093C8F8FFB3F7F800BF
:104730003316C800D18F6319F709232A6500850550
:10474000E399C5FD371601405CC1930506806312ED
:10475000B50823A2F180C16763E6F604504D814796
:10476000054E3D4F930F800293028004A14E938526
:104770000701B315BE00B3F8B60063911503939813
:10478000270033131F011343F3FF3376C300B3181D
:10479000180133E6C800631AF7054CC98507E3988A
:1047A000D7FD50CD8280E31D57F2232815010DBFA0
:1047B000930506C06315B50083A7818099B7E312FE
:1047C000C5F483A7C18035BFE31B57F623286500D6
:1047D000BDB7930506C06315B50023A4F180A5BF3E
:1047E000E31BC5F623A6F180BDB7E31957FAB3154D
:1047F000FE000CD165B793970501C1831CC9C18127
:104800000CD1828001CA93970501C1831CC9C18163
:104810000CD182804CC9828023AAA18A82803777FA
:1048200000401C4393F7F7F95D8D08C38280B7778A
:104830000040DC437D8D3335A0008280EFB25F8F76
:104840007D21854537050010792813050006EFF016
:104850001FFD2945D1211145EFF07FFD2A84014537
:10486000EFF0FFFB333580006FB0DF8EB777DC02EF
:10487000938707C01CC137160240584211839376B4
:10488000F70037070020130707013697142350421B
:1048900093F6F60F1376060833D7D70019E233D70D
:1048A000D70258C118C558C5828099C5371702402C
:1048B0005C4B5D8D48CB8280B7170240D84B1345C7
:1048C000F5FF798DC8CB828099C5371702401C4F00
:1048D0005D8D08CF8280B7170240984F1345F5FFD2
:1048E000798D88CF828099C5371702405C4F5D8DE6
:1048F00048CF8280B7170240D84F1345F5FF798D16
:10490000C8CF828099C5371702405C475D8D48C784
:104910008280B7170240D8471345F5FF798DC8C785
:10492000828099C5371702401C4B5D8D08CB828071
:10493000B7170240984B1345F5FF798D88CB8280DD
:104940001A218D6793870704B6217D8F9E21D58F0D
:10495000D621D58FF621D58F9625D58FB625D58F23
:10496000D625D58FF625D58FD98F1EA19E291EA9B4
:1049700082801E2189C593E707041EA18280C20799
:10498000C18393F7F7FBC207C183C5BF5E2101C690
:10499000DD8D4EA1828093C5F5FFFD8DDDBF4EA557
:1049A00082804A2582800A256D8D3335A000828061
:1049B000EFB20FF8B7370140938707C0631FF500C8
:1049C0000564854513050480EFF0DFF38145130589
:1049D0000480EFF03FF36FB0EFF7B7070040631BC1
:1049E000F50085450545EFF0DFF381450545EFF01E
:1049F0005FF3D5B793870740E31FF5FC854509456D
:104A0000EFF03FF281450945DDB71E213737014000
:104A1000130707C0C207C1836306E50037070040DC
:104A20006316E500BA2193F7F7F8D98FFA2193F7C7
:104A3000F7CFC207C183D98F1EA1DE215EB59E21AB
:104A40001EB5B7370140938707C06306F500B70767
:104A500000406314F5009C251EB985475EA982803D
:104A60001E31922103D82500C207C183F99BC207DA
:104A7000C1831EB11E3156211A2DC207C1834207C0
:104A800041831377C7F8518F9225F59BC206336691
:104A90000601D18F37360140130606C0C182630676
:104AA000C500370600406310C502B225DD9B03D860
:104AB000E500D18FD221ED9B93F6F6CFD18FD22591
:104AC00033660601D18E56A11AADFA215AB91EB12C
:104AD00082801E3165771307F7CFC207C183BD9B64
:104AE000C207C1831EB11E31562103D88500C207FB
:104AF00013960601162DC18393F7F7FD758F962146
:104B00004182A206558FB62142074183B3E60601D2
:104B10009206D58FB7360140C207938606C0C1837F
:104B20006306D500B7060040631ED502B62593F78D
:104B3000F7F703D8C5009206D58FD621C207C183E7
:104B4000920693F7F7FBD58FFD769386F63FF18EAD
:104B5000F225C207C183336606010A06D18E139679
:104B60000601418252A11AADFA211ABD1EB18280FE
:104B70001E2189C593E717001EA18280C207C18349
:104B8000F99BC207C183CDBF8357450491C52167F7
:104B9000D98F2312F5048280C607C583DDBF5E2549
:104BA00001C6DD8D4EA5828093C5F5FFFD8DDDBF6D
:104BB000EFB20FD8EFF0BFFE6FB0CFD91E2189C57D
:104BC00093E707081EA18280C207C18393F7F7F716
:104BD000C207C183C5BF1E2DC207C183DD9BDD8D0A
:104BE0000EAD82801A2DFD779387F77FF98FA2058E
:104BF000CD8FC207C1831EAD828093C5F5FFC2056C
:104C0000C1810EA982801E294A25ED8F420541816E
:104C100089C76D8D3335A00082800145828093C5A0
:104C2000F5FFC205C1810EA98280EFB26FD01629AF
:104C3000F577FD17F58FF621DA250111D58F1EA91D
:104C40005625FD779387379FF58FD6212A842EC668
:104C5000D58F9625D58FB625D58F5EA55E29C2073F
:104C6000C18393F7F7CFD98F5EA90808EFF01FC073
:104C7000B747014093870780B245631EF402F247AD
:104C80006547B387E7029841930640060A07B3D702
:104C9000E70233D7D702B3F7D702120792079387F9
:104CA0002703B3D7D702BD8BD98FC207C1831EA4F8
:104CB00005616FB02FCAE247E1B791C55E2509676C
:104CC000D98F5EA582805A25F977FD17F98FD5BF58
:104CD0005E2901C6DD8D4EA9828093C5F5FFFD8D4D
:104CE000DDBF93C5F5FFC205C1810EA18280B70764
:104CF000002083A7070237177A0013070720B3D7CE
:104D0000E70293F7F70F238DF18A1307803EB387ED
:104D1000E702239CF18A8280B7F700E0D8438146FE
:104D2000799BD8C303C7A18B3306A70290CBD4CB02
:104D300098431367070198C398431367170298C3F2
:104D4000D843058B75DF9843799B98C38280B7F76A
:104D500000E0D8438146799BD8C303D7818B3306C3
:104D6000A70290CBD4CB98431367070198C398430D
:104D70001367170298C3D843058B75DF9843799B57
:104D800098C38280EFB2CFBA01112A8485453705D6
:104D90000200EFF05FB585451145EFF0FFB2914796
:104DA0003EC23715014085473EC44C00E14713051C
:104DB00005803EC6EFF05F8D22C837440040B7073C
:104DC00008000C08130504403ECC02CA231E010053
:104DD000EFF0BFE5854513050440EFF01FEE0561D8
:104DE0006FB04FB7B3C7A5008D8B3307C50081E700
:104DF0008D4763EDC700AA87637EE5089421850788
:104E00008505A38FD7FEE3EBE7FE8280937635001E
:104E1000AA8789CA942185078505A38FD7FE93F6B3
:104E20003700C5BF9376C7FF138606FE63F0C7063B
:104E300083A3050083A2450083AF850003AFC500AF
:104E400083AE050103AE450103A3850183A8C50117
:104E50009385450223A0770003A8C5FF23A257002E
:104E600023A4F70123A6E70123A8D70123AAC7019A
:104E700023AC670023AE17019387470223AE07FFD9
:104E800075B790419107910523AEC7FEE3EBD7FEBE
:104E9000E3E6E7F682800000CA040000E4040000B4
:104EA000FE040000180500009A060000A806000095
:104EB0002E0500004E050000760500009A05000052
:104EC000B4050000DE050000020600001C0600001C
:104ED00032060000440600004A0600007206000088
:104EE000940600004C63645F580020002100004CD1
:104EF00063645F59002000210001466C6173685FA4
:104F0000496E666F0020002100024D534E5F5549E7
:104F1000440020001E0000004D534E5F5374617426
:104F200075730020000100001F0000000000000059
:104F30000000000000000000000000000000000071
:104F40000000000000000000000000000000000061
:104F50000000000000000000000000000000000051
:104F60000000000000000000000000000000000041
:104F70000000000000000000000000000000000031
:104F80000000000000000000000000000000000021
:104F90000000000000000000000000000000000011
:104FA0000000000000000000000000000000000001
:104FB00000000000000000000000000000000000F1
:104FC00000000000000000000000000000000000E1
:104FD00000000000000000000000000000000000D1
:104FE00000000000381C0000021B00005C1B0000D9
:104FF0008E1B00005C1B0000901A00008819000046
:105000005C1B0000DA1A0000F01A0000321C0000DD
:105010009A1A00007FC4DEC6F6C67F00FF44D5C4DE
:10502000D4D5FF00FC466E6EEE6EFC007FF1F7F10A
:10503000FDF17F00FF11B5B5B5B1FF00FC1E5E1E8E
:105040007E7EFC007FC5EDEDEDED7F00FF74255405
:105050007574FF00FC46D646CE56FC007FF1F5F590
:10506000F5F17F00FC6E2E4E6E6EFC007FC4D5D431
:10507000D5C57F00FC46DE46DEDEFC0000000000F9
:1050800000E0E0E0183C3CFF7E180000081C2222F3
:105090003649221C4EB1501010110E00FF4242241E
:1050A00024181800FF7E7E3C3C18180000181824B5
:1050B000244242FF0018183C3C7E7EFF0102040897
:1050C000102040808040201008040201427E5A18BF
:1050D000BDFF8100223F421E123F0202182442BD42
:1050E000142448187222F62777A32224007F494906
:1050F0007F4143000008047E040800000010207E69
:105100002010000010385410101010001010101053
:1051100054381000000000000000000010101010B3
:10512000100010002828280000000000247E2424FD
:10513000247E24007E7E7E7E7E7E7E002254240895
:1051400012152200205050304A443A00080810003E
:10515000000000000810202020100800201008087F
:1051600008102000082A1C081C2A08000008083E15
:1051700008080000000000000808100000000000FF
:105180003C000000000000000000100001020408C4
:10519000102040003E22222222223E000202020271
:1051A000020202003E02023E20203E003E02023E7B
:1051B00002023E002222223E020202003E20203E47
:1051C00002023E003E20203E22223E003E0202021B
:1051D000020202023E22223E22223E003E22223EC5
:1051E00002023E000000100000100000000010004D
:1051F00000102000040810201008040000007C00AB
:10520000007C000020100804081020001C2202046A
:10521000080008001C225D534F221C001C22414143
:105220007F4141007E41417E41417E003E41404000
:1052300040413E007E41414141417E007F40407EF1
:1052400040407F007F40407C404040003E41404F16
:1052500041413E004141417F414141001C08080855
:1052600008081C001C080808084830004448506022
:10527000504844004040404040407F004163554911
:105280004141410041615149454341003E41414155
:1052900041413E007E41417E404040003E4141410F
:1052A00045423D007E41417E444241003E41403EF8
:1052B00001413E007F0808080808080041414141BB
:1052C00041413E00414141412214080041414149D0
:1052D0005563410041221408142241004122140860
:1052E000080808007F02040810207F0038202020D2
:1052F000202038004428107C107C10003808080852
:1053000008083800102844000000000000000000D9
:1053100000007F00000000000000000000003804D2
:105320003C443A0000202038242438000000003893
:10533000404038000404041C24241C0000003844AD
:105340007C403800000810381010100000001824AD
:105350001C043800002020382424240010001010E1
:105360001010100008000808080830000020242849
:1053700030282400101010101010380000000078A1
:10538000545454000000003824242400000000304D
:10539000484830000038242438202000001C2424F1
:1053A0001C040400000028302020200000001820E9
:1053B0001008300000001038101018000000002401
:1053C00024241800000000222214080000000044D9
:1053D0004454280000004428102844000024241CC1
:1053E000040418000000003C08103C0018101020B5
:1053F00010101800101010101010100018080804D9
:10540000080818004D534E200000000069736E27F5
:10541000742000006163746976617465642E000015
:1054200009026B000301038023080B000202020142
:10543000000904000001020201000524001001051A
:10544000240100010424020205240600010705814D
:105450000340000109040100020A000000070502E0
:105460000240000007058302400000090402000218
:105470000300000009210001000122220007058429
:105480000340000107050403400001001201100160
:1054900000000040861A0CFE00010102030100001A
:1054A0000600FF0901A101090226FF007508150089
:1054B000954081060902150026FF00750895409168
:1054C00006C000000E037700630068002E00630032
:1054D0006E000000120343004800330032007800E1
:1054E0003000330035000000160330003100320078
:1054F0003300340035003600370038003900000032
:105500000102030405060708010203040506070853
:105510000102030405060708010203040506070843
:10552000006CDC0244444444444444444444444401
:10553000004D534E434E0000004D534E303100009D
:0855400004030904000000004F
:00000001FF
